{
  "contractName": "getdomain",
  "abi": [
    {
      "inputs": [],
      "payable": false,
      "stateMutability": "nonpayable",
      "type": "constructor"
    },
    {
      "anonymous": false,
      "inputs": [
        {
          "indexed": false,
          "internalType": "string",
          "name": "domain",
          "type": "string"
        },
        {
          "indexed": false,
          "internalType": "address",
          "name": "add",
          "type": "address"
        },
        {
          "indexed": false,
          "internalType": "bool",
          "name": "boo",
          "type": "bool"
        }
      ],
      "name": "view_domain",
      "type": "event"
    },
    {
      "constant": false,
      "inputs": [
        {
          "internalType": "string",
          "name": "_domain",
          "type": "string"
        }
      ],
      "name": "give_my_domain",
      "outputs": [],
      "payable": true,
      "stateMutability": "payable",
      "type": "function"
    },
    {
      "constant": false,
      "inputs": [
        {
          "internalType": "address",
          "name": "_add",
          "type": "address"
        }
      ],
      "name": "trans",
      "outputs": [],
      "payable": false,
      "stateMutability": "nonpayable",
      "type": "function"
    }
  ],
  "bytecode": "0x608060405234801561001057600080fd5b50336000806101000a81548173ffffffffffffffffffffffffffffffffffffffff021916908373ffffffffffffffffffffffffffffffffffffffff16021790555061044c806100606000396000f3fe6080604052600436106100295760003560e01c806312e0626c1461002e57806370100093146100e9575b600080fd5b6100e76004803603602081101561004457600080fd5b810190808035906020019064010000000081111561006157600080fd5b82018360208201111561007357600080fd5b8035906020019184600183028401116401000000008311171561009557600080fd5b91908080601f016020809104026020016040519081016040528093929190818152602001838380828437600081840152601f19601f82011690508083019250505050505050919291929050505061013a565b005b3480156100f557600080fd5b506101386004803603602081101561010c57600080fd5b81019080803573ffffffffffffffffffffffffffffffffffffffff16906020019092919050505061030b565b005b662386f26fc10000341061022a577fde096c46e9790bc1712f83b39226c4275fd55f410a44c473c44b429be71253008133600160405180806020018473ffffffffffffffffffffffffffffffffffffffff1673ffffffffffffffffffffffffffffffffffffffff16815260200183151515158152602001828103825285818151815260200191508051906020019080838360005b838110156101e95780820151818401526020810190506101ce565b50505050905090810190601f1680156102165780820380516001836020036101000a031916815260200191505b5094505050505060405180910390a1610308565b7fde096c46e9790bc1712f83b39226c4275fd55f410a44c473c44b429be71253008133600060405180806020018473ffffffffffffffffffffffffffffffffffffffff1673ffffffffffffffffffffffffffffffffffffffff16815260200183151515158152602001828103825285818151815260200191508051906020019080838360005b838110156102cb5780820151818401526020810190506102b0565b50505050905090810190601f1680156102f85780820380516001836020036101000a031916815260200191505b5094505050505060405180910390a15b50565b6000809054906101000a900473ffffffffffffffffffffffffffffffffffffffff1673ffffffffffffffffffffffffffffffffffffffff163373ffffffffffffffffffffffffffffffffffffffff16146103cd576040517f08c379a00000000000000000000000000000000000000000000000000000000081526004018080602001828103825260088152602001807f676574206f75742100000000000000000000000000000000000000000000000081525060200191505060405180910390fd5b8073ffffffffffffffffffffffffffffffffffffffff166108fc479081150290604051600060405180830381858888f19350505050158015610413573d6000803e3d6000fd5b505056fea265627a7a723158202c25ed3dc4195de9afee009a0a80073b6a916f902a8dc62f9d4a698304e4062c64736f6c63430005100032",
  "source": "// SPDX-License-Identifier: MIT\npragma solidity >=0.4.21 <0.7.0;\n\ncontract getdomain{\n  address _owner;\n\n  constructor() public {\n    _owner = msg.sender;\n  }\n\n\n  modifier onlyOwner() {\n    require(msg.sender == _owner,'get out!');\n    _;\n  }\n\n  event view_domain(\n    string domain,\n    address add,\n    bool boo\n  );\n\n  function give_my_domain(string memory _domain)public payable {\n    if (msg.value >= 0.01 ether){\n      emit view_domain(_domain,msg.sender,true);\n    }else{\n      emit view_domain(_domain,msg.sender,false);\n    }\n  }\n\n  function trans(address _add) public onlyOwner  {\n    address(uint160(_add)).transfer(address(this).balance);\n  }\n}\n",
  "sourcePath": "E:\\Project\\eth_bsn_hyperledger\\ens_dapp\\contract_deploy\\contracts\\Migrations.sol",
  "compiler": {
    "name": "solc",
    "version": "0.5.16+commit.9c3226ce.Emscripten.clang"
  },
  "schemaVersion": "3.2.2",
  "updatedAt": "2020-07-17T14:33:26.326Z",
  "devdoc": {
    "methods": {}
  },
  "userdoc": {
    "methods": {}
  }
}